{
  "contractName": "Todo",
  "abi": [
    {
      "constant": true,
      "inputs": [],
      "name": "getTodo",
      "outputs": [
        {
          "name": "",
          "type": "bytes32[]"
        }
      ],
      "payable": false,
      "stateMutability": "view",
      "type": "function"
    },
    {
      "constant": false,
      "inputs": [
        {
          "name": "todo",
          "type": "bytes32"
        }
      ],
      "name": "setTodo",
      "outputs": [],
      "payable": false,
      "stateMutability": "nonpayable",
      "type": "function"
    },
    {
      "inputs": [],
      "payable": false,
      "stateMutability": "nonpayable",
      "type": "constructor"
    }
  ],
  "bytecode": "0x6060604052341561000f57600080fd5b336000806101000a81548173ffffffffffffffffffffffffffffffffffffffff021916908373ffffffffffffffffffffffffffffffffffffffff1602179055506102078061005e6000396000f30060606040526004361061004c576000357c0100000000000000000000000000000000000000000000000000000000900463ffffffff1680637fa1680a14610051578063a26703d1146100bb575b600080fd5b341561005c57600080fd5b6100646100e2565b6040518080602001828103825283818151815260200191508051906020019060200280838360005b838110156100a757808201518184015260208101905061008c565b505050509050019250505060405180910390f35b34156100c657600080fd5b6100e0600480803560001916906020019091905050610144565b005b6100ea610176565b600180548060200260200160405190810160405280929190818152602001828054801561013a57602002820191906000526020600020905b81546000191681526020019060010190808311610122575b5050505050905090565b60018054806001018281610158919061018a565b91600052602060002090016000839091909150906000191690555050565b602060405190810160405280600081525090565b8154818355818115116101b1578183600052602060002091820191016101b091906101b6565b5b505050565b6101d891905b808211156101d45760008160009055506001016101bc565b5090565b905600a165627a7a72305820a5fbd53a45287018c412c41c6d247c1b1108b47ef7d10c5a7a18c1a4b65f74fd0029",
  "source": "pragma solidity ^0.4.17;\r\n\r\ncontract Todo {\r\n    address myAddress;\r\n    bytes32[] todos;\r\n\r\n    function Todo() public {\r\n        myAddress = msg.sender;\r\n    }\r\n    \r\n    modifier isMyAddress {\r\n        if (myAddress == msg.sender) {\r\n            _;\r\n        }\r\n    }\r\n\r\n    function setTodo(bytes32 todo) public {\r\n        todos.push(todo);\r\n    }\r\n\r\n    function getTodo() constant public returns (bytes32[]) {\r\n        return todos;\r\n    }\r\n\r\n}",
  "sourcePath": "F:\\Programming\\DecentralizedTodo\\contracts\\Todo.sol",
  "compiler": {
    "name": "solc",
    "version": "0.4.18+commit.9cf6e910.Emscripten.clang"
  },
  "schemaVersion": "1.0.1",
  "updatedAt": "2018-02-08T05:55:36.405Z"
}